:020000040800F2
:100000005807002089010008DB150008CD140008FE
:10001000D9150008CF020008D71B00080000000017
:100020000000000000000000000000003B17000876
:10003000D102000800000000391700083D17000831
:10004000A3010008A3010008A3010008A301000800
:10005000A3010008A3010008A3010008A3010008F0
:10006000A3010008A3010008A3010008A3010008E0
:10007000A3010008A3010008A3010008A3010008D0
:10008000A3010008A3010008A3010008A3010008C0
:10009000A3010008A3010008A3010008A3010008B0
:1000A000A3010008A3010008A3010008A3010008A0
:1000B000A1170008A3010008A3010008A30100087C
:1000C000A3010008A3010008A3010008A301000880
:1000D000A3010008A3010008A3010008A301000870
:1000E000A3010008A3010008A301000800F002F822
:1000F00000F03AF80AA090E8000C82448344AAF188
:100100000107DA4501D100F02FF8AFF2090EBAE885
:100110000F0013F0010F18BFFB1A43F0010318473B
:10012000C81B0000E81B0000103A24BF78C878C143
:10013000FAD8520724BF30C830C144BF04680C60ED
:10014000704700000023002400250026103A28BF35
:1001500078C1FBD8520728BF30C148BF0B60704739
:100160001FB51FBD10B510BD00F077F81146FFF7A1
:10017000F7FF01F041FD00F095F803B4FFF7F2FF3F
:1001800003BC00F09DF8000009488047094800477B
:10019000FEE7FEE7FEE7FEE7FEE7FEE7FEE7FEE737
:1001A000FEE7FEE704480549054A064B7047000094
:1001B0009F170008ED000008580100205807002094
:1001C000580300205803002010B5431C02E010F82B
:1001D000011B71B18107FAD14FF0013202C88C1AAC
:1001E0008C4314EAC211F9D0C01A0A0603D0C01E0B
:1001F00010BDC01A10BD0A0401D0801E10BD090236
:10020000FCD0401E10BD4FF0000200B513469446CE
:100210009646203922BFA0E80C50A0E80C50B1F15E
:100220002001BFF4F7AF090728BFA0E80C5048BF72
:100230000CC05DF804EB890028BF40F8042B08BF10
:10024000704748BF20F8022B11F0804F18BF00F80C
:10025000012B7047704770477047754600F02CF8C7
:10026000AE4605006946534620F00700854618B0A3
:1002700020B5FFF797FFBDE820404FF000064FF094
:1002800000074FF000084FF0000B21F00701AC46CB
:10029000ACE8C009ACE8C009ACE8C009ACE8C009EA
:1002A0008D46704710B50446AFF300802046BDE888
:1002B0001040FFF762BF000000487047F4000020C4
:1002C00001491820ABBEFEE7260002007047FEE79A
:1002D000704700000C4910B50020C880488800B95C
:1002E00014208A8802B90A2208490B68D862C860BB
:1002F000086842630021054800F002FFBDE8104095
:10030000024800F0F7BC000000000020240000209C
:1003100010B50E4800F01AFD0D4C00200146E0809B
:100320000A4800F0EDFE002202210A4800F016F90A
:10033000064861880268D162C1600068A188416393
:10034000BDE81040014800F0ADBC000024000020D2
:10035000000000200008014070B5044600F004F9D8
:100360000546601C02D004480078044400F0FCF804
:10037000401BA042FAD370BD140000202DE9F84FB5
:10038000DFF8B8910024A9F1040B23460F2709F1E7
:10039000040AABF1040EC9E00125A5402A40AA4297
:1003A0007DD1674ED1F804C0ACEB0608B44532D01D
:1003B00014DCBCF1030F3AD009DCBCF1000F2AD0E9
:1003C000BCF1010F1CD0BCF1020F31D11DE0BCF11A
:1003D000110F17D0BCF1120F2AD119E0B8F5881F00
:1003E00019D006DCB8F5803F15D0B8F5801F1FD1B5
:1003F00011E0B8F5001F0ED0B8F5041F18D10AE0BF
:10040000CB6815E0CB681B1D12E0CB6808330FE00A
:10041000CB680C330CE08B682BB1012B4FF0080339
:1004200003D0456104E0042302E0056100E00023FD
:10043000FF2A01D8064601E000F104064FEA8405D0
:1004400001D9A5F12005D6F8008007FA05FC28EAB5
:100450000C0803FA05F548EA0508C6F800804D685F
:10046000ED0062D5374DAE6946F00106AE61AD696B
:1004700024F0030605F001050095334D06EB050C4D
:10048000DCF80850A607360F07FA06F825EA080533
:10049000DFF8B880404503D14FF0000817E044E092
:1004A000DFF8AC80404502D14FF001080FE0DFF8E3
:1004B000A480404502D14FF0020808E0DFF89880A0
:1004C000404502D14FF0030801E04FF0040808FA5C
:1004D00006F848EA0508CCF808804D68D9F80060AD
:1004E000ED024D4601D5164300E096432E604D685F
:1004F000DAF80060AD02554601D5164300E0964398
:100500002E604D68DBF80060AD035D4601D51643F3
:1005100000E096432E604D68DEF80060ED037546FE
:1005200001D5164300E096432E60641C0D682A46F0
:10053000E5407FF431AFBDE8F88F000008040140CA
:1005400000001110001002400000014000080140AE
:10055000000C014000100140001401400AB101618B
:1005600070470904FBE700000148806870470000FD
:1005700014000020024881680278114481607047AD
:1005800014000020074810B5016841F01001016017
:10059000032000F075F80F2000F006F800F024F8B2
:1005A000002010BD0020024070B50D4D04464FF4F0
:1005B0007A712878B1FBF0F00A490968B1FBF0F0D4
:1005C00000F0DCFA48B9102C07D200222146501E58
:1005D00000F036F800206C6070BD012070BD000096
:1005E00014000020200000200C4808B5816941F06B
:1005F00001018161816901F001010091C16941F04E
:100600008051C161C06900F0805000900448416889
:1006100021F0E06141F00071416008BD001002402E
:1006200000000140002809DB00F01F020121914079
:100630004009800000F1E020C0F800117047000080
:10064000F0B40E4B1B680C46C3F30223C3F107053D
:10065000042D00D90425191D072901D2002300E02B
:10066000DB1E012606FA05F1491E214099409E40F5
:10067000761E16403143F0BC01F0AEBA0CED00E03E
:10068000064900F0070208684FF6FF03184040EAE9
:100690000220034A10430860704700000CED00E0A0
:1006A0000000FA052DE9F0470F46050061D0434EE2
:1006B000306800F00700B84209D2306820F0070027
:1006C00038433060306800F00700B84251D12868E4
:1006D0003B4C810712D5400703D5606840F4E060C9
:1006E00060602878000703D5606840F4605060605F
:1006F0006068A96820F0F000084360602878C007AF
:1007000028D06868012810D02168022810D08907F5
:1007100000292EDA616821F0030101436160FFF7CF
:1007200023FF804641F288390DE021688903EFE715
:100730008901EDE7FFF718FFA0EB0801494502D951
:100740000320BDE8F0876068696800F00C00B0EB3A
:10075000810FEFD1306800F00700B8420BD9306844
:1007600020F0070038433060306800F00700B842DE
:1007700001D00120E5E72878400705D56068E968E1
:1007800020F4E060084360602878000706D56068C0
:10079000296920F4605040EAC100606000F038F838
:1007A0006168084AC1F30311515CC84006490860FA
:1007B00006480068FFF7F8FE0020C2E7002002406C
:1007C00000100240CE1C000820000020180000206D
:1007D0000448054900684968044AC1F30221515C94
:1007E000C84070472000002000100240DE1C0008B6
:1007F0000448054900684968044AC1F3C221515CB4
:10080000C84070472000002000100240DE1C000895
:100810000E4A51680E4801F00C03042B11D0082B2E
:100820000FD10C48C1F38343C903C05C0AD551689A
:10083000084AC1F34041921E515C054A5043B0FB47
:10084000F1F070470449484370470000001002402F
:1008500000127A00BE1C000800093D002DE9F84F87
:10086000040070D02078C04DC00749D06868C0F33C
:100870008100012807D06868C0F38100022809D1EF
:100880006868C00306D52868800339D560680028E9
:10089000E7D035E06068B0F5803F0BD010B1B0F51F
:1008A000A02F11D0286820F480302860286820F418
:1008B000802002E0286840F480302860606890B1B1
:1008C000FFF752FE06460AE0286840F480202860C0
:1008D000F0E700BFFFF748FE801B642873D8286844
:1008E0008003F7D50CE0FFF73FFE064605E000BFAA
:1008F000FFF73AFE801B6428F0D828688003F7D4FD
:1009000020789A4E80074FF001094FF0000839D542
:10091000686810F00C0F07D06868C0F381000228E7
:1009200009D16868C00306D42868800714D52069F7
:10093000012808D110E02069B0B1C6F80090FFF797
:1009400013FE074605E00AE1FFF70EFEC01B022872
:10095000C4D828688007F7D52868616920F0F800B6
:1009600040EAC10028600DE0C6F80080FFF7FCFDFA
:10097000074604E0FFF7F8FDC01B022823D82868CB
:100980008007F7D4207800072CD57948A169D9B120
:10099000C0F80090FFF7E8FD074604E0FFF7E4FD2C
:1009A000C01B02280FD8686A8007F7D571484FF43A
:1009B000FA510068B0FBF1F0009000BF0098411EB2
:1009C0000091FAD20EE080E0C0F80080FFF7CCFD85
:1009D000074604E0FFF7C8FDC01B022875D8686A07
:1009E0008007F7D42078400760D5E8690027C00069
:1009F00008D4E86940F08050E861E869012700F018
:100A0000805000905C480168C90513D40168834692
:100A100041F480710160FFF7A7FD824606E000BF48
:100A2000FFF7A2FDA0EB0A0064284ED8DBF8000017
:100A3000C005F5D5E06801280AD008B1052813D013
:100A4000286A20F001002862286A20F0040002E0F1
:100A5000286A40F001002862E06841F2883B98B1C2
:100A6000FFF782FD82460BE0286A40F0040028620E
:100A7000EEE700BFFFF778FDA0EB0A0159455AD811
:100A8000286A8007F6D50CE0FFF76EFD824605E088
:100A9000FFF76AFDA0EB0A0159454CD8286A800788
:100AA000F6D41FB1E86920F08050E861E06988B3AE
:100AB0006968C1F38101022944D00228C6F8608028
:100AC00004D0FFF751FD044638E034E0FFF74CFD59
:100AD000074604E0FFF748FDC01B02282BD8286812
:100AE0008001F7D4206AB0F5803F05D16868A1681D
:100AF00020F4003008436860D4E9080108436968BD
:100B000021F4741108436860C6F86090FFF72CFD6B
:100B1000044606E025E000BFFFF726FD001B022883
:100B200009D828688001F7D51BE000BFFFF71CFD3E
:100B3000001B022802D90320BDE8F88F2868800135
:100B4000F4D40EE00128F7D06868226A00F48031FE
:100B5000914204D1616A00F47010884201D00120F2
:100B6000EAE70020E8E700000010024000004242EF
:100B700080044242200000200070004010B5401E5A
:100B8000B0F1807F01D3012010BD4FF0E0246061FF
:100B90000F21601701F020F80020A06107202061DC
:100BA000002010BD7047704770B590F83C20012AB6
:100BB00026D0012480F83C40022280F83D200368C2
:100BC0005A689D6822F070060A6832435A600D4BDD
:100BD00002689A4208D0B2F1804F05D00A4B9A427F
:100BE00002D00A4B9A4204D1496825F08003194388
:100BF000916080F83D40002180F83C10084670BDAF
:100C0000022070BD002C014000040040000800409C
:100C100010B5040003D094F83D0010B107E00120A6
:100C200010BD002084F83C00204600F01FF8022090
:100C300084F83D00211D206800F0B8FD012084F8F3
:100C4000460084F83E0084F83F0084F8400084F8B1
:100C5000410084F8420084F8430084F8440084F89A
:100C6000450084F83D00002010BD000008B5006874
:100C7000B0F1804F12D10A48C16941F00101C16150
:100C8000C069002200F00100009011461C20FFF70F
:100C9000D7FCBDE808401C20FFF7C4BC08BD00001D
:100CA0000010024090F83D10012901D0012070474A
:100CB000022180F83D1000680B49884208D0B0F14D
:100CC000804F05D00949884202D00949884204D1A1
:100CD000816801F00701062903D0016841F0010194
:100CE0000160002070470000002C0140000400401B
:100CF0000008004090F83D10012901D00120704704
:100D0000022180F83D100168CA6842F00102CA6001
:100D100000680B49884208D0B0F1804F05D00949DE
:100D2000884202D00849884204D1816801F0070155
:100D3000062903D0016841F00101016000207047DD
:100D4000002C014000040040000800400168CA680F
:100D500022F00102CA6001680A6A41F211131A42C4
:100D600007D10A6A9B101A4203D10A6822F00102D5
:100D70000A60012180F83D100020704770B50446DC
:100D800090F83C000025012817D0012684F83C602B
:100D9000022084F83D002068826822F0770222F465
:100DA0007F4282600868502838D00DDC20284FD060
:100DB00005DC90B3102811D14AE0022070BD302824
:100DC00046D040280AD13BE060282FD070280DD0B3
:100DD000B0F5805F03D0B0F5005F12D0012584F834
:100DE0003D60002084F83C00284670BDCB68D1E906
:100DF0000121206800F023FD2068816841F077011F
:100E000009E0CB68D1E90121206800F018FD2068D5
:100E1000816841F480418160E1E719E0CA6849686E
:100E2000206800F0C1FD5021206806E0CA684968CA
:100E3000206800F0CAFD6021206800F00AFDCEE7BE
:100E4000CA684968206800F0AFFD40212068F4E7D7
:100E5000226801461046F0E770472DE9F04104464C
:100E60000068C66805694FF00007A90713D5B107E8
:100E700011D5F91E01610120207720688069800763
:100E8000204602D0FFF7E8FF04E000F0A3F8204678
:100E900000F035F92777680716D5700714D5216853
:100EA0006FF004000861022020772068806910F448
:100EB000407F204602D0FFF7CFFF04E000F08AF821
:100EC000204600F01CF92777280715D5300713D5E1
:100ED00021686FF008000861042020772068C0694D
:100EE0008007204602D0FFF7B7FF04E000F072F859
:100EF000204600F004F92777E80616D5F00614D549
:100F000021686FF010000861082020772068C06910
:100F100010F4407F204602D0FFF79EFF04E000F06F
:100F200059F8204600F0EBF82777E80708D0F007DB
:100F300006D021686FF001000861204600F066F9D4
:100F4000280608D5300606D521686FF080000861B4
:100F50002046FFF727FE680608D5700606D52168EB
:100F60006FF040000861204600F09CF9A8060AD501
:100F7000B00608D521686FF0200008612046BDE862
:100F8000F041FFF710BEBDE8F081000000B585B06C
:100F9000002100910191029103910068B0F1804F0E
:100FA00011D10A48816941F0040181618069694673
:100FB00000F00400049001200090022001900390B2
:100FC0000348FFF7DBF905B000BD00000010024048
:100FD00000080140704770B5044690F83C000026B8
:100FE0000D4601280FD0012084F83C006AB1042A84
:100FF0001DD0082A2FD00C2A3FD00126002084F8CB
:101000003C00304670BD022070BD206800F02AFC14
:101010002068816941F0080181612068816921F0BF
:1010200004018161206881692A69114311E0206807
:1010300000F040FC2068816941F400618161206812
:10104000816921F480618161206881692A6941EAAE
:1010500002218161D2E7206800F058FC2068C16954
:1010600041F00801C1612068C16921F00401C1613A
:101070002068C1692A69114311E0206800F072FC00
:101080002068C16941F40061C1612068C16921F42F
:101090008061C1612068C1692A6941EA0221C16198
:1010A000ACE710B5040003D094F83D0010B107E0A0
:1010B000012010BD002084F83C00204600F01EF8FE
:1010C000022084F83D00211D206800F06FFB012004
:1010D00084F8460084F83E0084F83F0084F840001D
:1010E00084F8410084F8420084F8430084F8440006
:1010F00084F8450084F83D00002010BD704770471B
:1011000010B50446022249B104290ED0082913D093
:1011100094F84100012816D0012010BD94F83E003B
:101120000128F9D184F83E200FE094F83F0001280F
:10113000F2D184F83F2008E094F840000128EBD178
:1011400084F8402001E084F841200122206800F06A
:1011500069FB0F492068884203D1426C42F4004287
:1011600042642068884208D0B0F1804F05D0094918
:10117000884202D00849884204D1816801F0070101
:10118000062903D0016841F001010160002010BD73
:10119000002C0140000400400008004030B5044627
:1011A0000D460068002200F03DFB174B41F2111183
:1011B00020688A10984209D1036A0B4206D1036A5B
:1011C000134203D1436C23F4004343642068036A51
:1011D0000B4206D1016A114203D1016821F00101DD
:1011E000016001203DB1042D08D0082D09D084F8FC
:1011F0004100002030BD84F83E00FAE784F83F004B
:10120000F7E784F84000F4E7002C01402DE9F041B5
:101210000068B0F1804F39D11D4CE088401C80B28D
:10122000E0802189884231D300211A48FFF7B6FFB8
:101230001848FFF78BFD0020E08020896421B0FB77
:10124000F1F70024144D154EDFF8548015E001220B
:1012500040213046FFF782F929460220401C88428F
:10126000FCD3002240213046FFF778F941460220A6
:10127000401C8842FCD3641CA4B2BC42E7D3304675
:10128000BDE8F04100224021FFF768B9BDE8F081D8
:10129000000000202400002020A1070000080140D9
:1012A000400D0300704770B5040004D094F841006D
:1012B000002510B106E0012070BD84F840502046A2
:1012C00000F024F8242084F841002068C16821F44B
:1012D0000051C160204600F0E9FB2068016921F45B
:1012E000904101612068416921F02A014161206833
:1012F000C16841F40051C1606564202084F8410058
:1013000084F842006563002070BD000030B585B0F0
:1013100000240094019402940394006814498842C4
:1013200024D11448816941F480418161816901F4CB
:1013300080410491816941F00401816180690E4D11
:1013400000F0040004904FF400700090022001901F
:101350000320039069462846FFF710F82815CDE9C9
:101360000004694628460294FFF708F805B030BD2E
:101370000038014000100240000801402DE9F84FFC
:10138000044690F842009A4616460D46202802D0A0
:101390000220BDE8F88FB5B1AEB100206064222113
:1013A00084F842102063FFF7DFF8A6858146E685C2
:1013B000A0684FF480582027404501D1206920B112
:1013C0002E46002529E00120E3E7002625E04B46D4
:1013D000002220212046CDF800A000F0C3FB18B168
:1013E00084F842700320D4E726B1A06840451AD0A3
:1013F00038B108E020684068C0F3080025F8020B07
:1014000008E0206978B12068406800F07F0000BFE4
:1014100006F8010BE08D401EE085E08D0028D6D156
:1014200084F84270B5E720684068F1E72DE9F84399
:10143000044690F84100984616460D46202802D0F2
:101440000220BDE8F88385B17EB1002060642120D0
:1014500084F84100FFF788F8A6848146E684A068F6
:101460002027B0F5805F02D003E00120E9E7206982
:1014700010B12E4600250EE000260CE0802120460B
:1014800000F070FBA8B9C6B116F8010B21684860DE
:10149000E08C401EE084E08C4B464FF00002CDF81B
:1014A00000800028EAD14FF04001204600F05AFBAE
:1014B00040B184F841700320C3E735F8020BC0F354
:1014C0000800E3E784F841700020BAE7FEE7000077
:1014D00070B586B0002418480094019402940394D7
:1014E000816941F020018161816901F0200104914D
:1014F000816941F0040181618069104E00F00400AF
:10150000049000227E213046FFF728F83E20012576
:10151000CDE900050320CDE9024069463046FEF7DB
:101520002DFF4020CDE9000569463046CDE9024552
:10153000FEF724FF06B070BD001002400008014015
:1015400010B58EB000240794089409940A940B9463
:101550001C2168460C94FEF756FE1E484FF0804151
:1015600001604FF4E151C0E901146421C0E90314A2
:101570008461FFF74DFB08B172B6FEE74FF480506F
:10158000079007A91348FFF7F9FB08B172B6FEE709
:101590001048FFF786FD08B172B6FEE70B940BA961
:1015A0000C480C94FFF700FB08B172B6FEE7602010
:1015B00000903220CDE901040022694605480494D8
:1015C000FFF709FD08B172B6FEE70248FFF7DEFC3F
:1015D0000EB010BD24000020FEE7FEE72DE9F0412B
:1015E0000546002979D02878484E494C4FF6FF77B8
:1015F0004FF4FA78012806D002284DD003286ED087
:10160000052144A06FE0032902D2082143A06AE02B
:10161000687804281DD1002204213046FEF79EFF81
:10162000002208213046FEF799FFA878A08007EA3B
:1016300040006080FEF76CFE012208213046FEF774
:101640008DFF4046FEF788FE002208213046FEF757
:1016500085FF6878052856D1012204213046FEF71F
:101660007DFF002210213046FEF778FFA878A08089
:1016700007EA40006080FEF74BFE01221021304651
:10168000FEF76CFF4046FEF767FE00221021304651
:10169000BDE8F041FEF762BF234814210268D16221
:1016A000C16000680A214163012202213046FEF731
:1016B00055FF00211C48FFF771FD1B48FFF746FB53
:1016C0000020E080012220213046FEF747FF4046FF
:1016D000FEF742FE00222021D9E714E0FFE70229AD
:1016E00005D2092111A0BDE8F04100F081B9687868
:1016F00000EBC00101EB001007EA80002081BDE88B
:10170000F041FEF7E7BDBDE8F081000000080140B0
:10171000000000206572726F7200000070617261DB
:101720006D2065727200000024000020616E676CFD
:10173000652065727200000070477047FEF71ABF9F
:1017400030B58FB028216846FEF75DFD14210AA848
:10175000FEF759FD01210804CDE900100024029490
:1017600002250491CDE907504FF4E0100990684636
:10177000FFF774F808B172B6FEE70F20CDE90A054D
:101780004FF48060CDE90C4002210AA80E94FEF7C8
:1017900089FF002801D072B6FEE70FB030BD704758
:1017A0000148FFF75ABB000024000020F0B5026892
:1017B000194B1A4C1A4D4FF08047984205D0B84249
:1017C00003D0A04201D0A84203D122F070064A689B
:1017D0003243984205D0B84203D0A04201D0A8427B
:1017E00003D122F44074CA6822434C6922F080027B
:1017F000224302608A68C2620A688262984201D10A
:1018000009690163012141610169C90703D00169C7
:1018100021F001010161F0BD002C014000040040F5
:101820000008004010B501F01F030121046A99402F
:101830008C430462016A9A401143016210BD10B5E5
:10184000846842EA032224F47F440A4322438260EC
:1018500010BD826822F070020A4342F007018160E5
:101860007047000030B5036A026A22F0010202628A
:101870004268846924F073050C682C4323F0020548
:101880008B682B430A4DA8420BD123F00805CB6887
:1018900022F440722B434D6923F0040315438A69F7
:1018A0002A434260846149684163036230BD00009D
:1018B000002C014030B5026A036A23F01003036272
:1018C000436884690D6824F4E64444EA05248D687D
:1018D00022F0200242EA05120B4DA8420ED1CD683B
:1018E00022F0800242EA05124D6923F4406343EA84
:1018F00085038D6922F0400243EA850343608461D9
:1019000049688163026230BD002C014030B5036A32
:10191000026A22F4807202624268C46923F400738E
:1019200024F073050C682C438D6843EA05230C4DA5
:10193000A8420ED1CD6823F4006343EA05234D6924
:1019400022F4405242EA05128D6923F4806342EA90
:1019500005124260C4614968C163036230BD000082
:10196000002C014030B5046A026A22F480520262FF
:101970004268C3690D6823F4E64343EA05238D6892
:1019800024F4005444EA0534064DA84204D14D69BC
:1019900022F4804242EA85124260C36149680164D0
:1019A000046230BD002C014010B5036A046A24F0C3
:1019B00001040462846924F0F00444EA021423F070
:1019C0000A020A438461026210BD10B5036A046A08
:1019D00024F010040462846923F0A00324F470440A
:1019E00044EA023243EA01118261016210BD000043
:1019F0000A4601464FF4FA730148FFF717BD00008D
:101A00006C00002001680C3151E8002F22F4907224
:101A100041E80023002BF5D10168143151E8002F73
:101A200022F0010241E80023002BF5D1016B0129CE
:101A300009D101680C3151E8002F22F0100241E871
:101A40000023002BF5D1202180F8421000210163F2
:101A500070470000F8B5134C0025134F2E46258023
:101A600011486423012269464838FFF787FC88B98A
:101A700055B19DF8001020885A290ED03F2809D270
:101A80003954401C2080EBE79DF80000AA28E7D1DC
:101A90000125E5E726800020F8BD0028FCD00120C4
:101AA000F8BD000000000020B400002070B504461E
:101AB00000680169E26821F4405111430161216924
:101AC000A0680843616908432168CA6841F20C6351
:101AD0009A430243CA6020684169A26921F44071B7
:101AE000114341611E492068884202D1FEF780FE01
:101AF00001E0FEF76DFE00EBC00101EB0012606833
:101B000064218000B2FBF0F3B3FBF1F36FF0180631
:101B10007343B2FBF0F5B2FBF0F605EB830532231D
:101B200003EB0515B5FBF1F5B6FBF1F605F0F00595
:101B300005EB0615B2FBF0F6B2FBF0F0B0FBF1F0EE
:101B40006FF01802504306EB800003EB0010B0FB6F
:101B5000F1F0216800F00F002844886070BD00009B
:101B6000003801402DE9F843984617460D460446D3
:101B7000089E24E0701C22D0FEF7F6FCA0EB0800C3
:101B8000B0421AD8CEB12068C168490717D5802D58
:101B900015D0402D13D00168C94309070FD401683F
:101BA0000025406800902046FFF72CFF0820606465
:101BB00084F840500120BDE8F8830320FBE720684B
:101BC000006835EA000004D00020B842D2D00020DE
:101BD000F1E70120F9E7FEE70907090E002804DB19
:101BE00000F1E02080F80014704700F00F0000F1D1
:101BF000E02080F8141D7047FEF7C4FCFFF7A0FD3D
:101C0000FFF766FCFFF79CFC294828490024016087
:101C10004FF41651C0E901140C21C460C0E904411D
:101C20008461C461FFF73FFB08B172B6FEE7214D46
:101C3000002202212846FEF791FC002204212846BA
:101C4000FEF78CFC002208212846FEF787FC0022C4
:101C500010212846FEF782FC002220212846FEF7AC
:101C60007DFC002240212846FEF778FC104D124EE4
:101C7000483500BFFFF7EEFE0128FBD10C48318844
:101C80004830FFF7ABFC0C480A30FEF79DFA81B2F2
:101C900009480A30FFF7ACFE0020318802E02C54DE
:101CA000401C80B28842FAD33480E3E70038014018
:101CB0006C00002000080140000000200102020327
:101CC0000405060708090A0B0C0D0E0F1010000082
:101CD00000000000000001020304060708090000DC
:101CE0000000010203040000081D0008000000209D
:101CF00024000000280100082C1D000824000020FA
:101D00003407000044010008000014000A0000002D
:101D100000007375636365737300000001000000C9
:0C1D2000100000000000000000127A001B
:04000005080000ED02
:00000001FF
